{
  "contractName": "BlockFoodPreSale",
  "abi": [
    {
      "constant": true,
      "inputs": [],
      "name": "maxCap",
      "outputs": [
        {
          "name": "",
          "type": "uint256"
        }
      ],
      "payable": false,
      "stateMutability": "view",
      "type": "function"
    },
    {
      "constant": false,
      "inputs": [
        {
          "name": "amount",
          "type": "uint256"
        }
      ],
      "name": "withdraw",
      "outputs": [],
      "payable": false,
      "stateMutability": "nonpayable",
      "type": "function"
    },
    {
      "constant": true,
      "inputs": [],
      "name": "minCap",
      "outputs": [
        {
          "name": "",
          "type": "uint256"
        }
      ],
      "payable": false,
      "stateMutability": "view",
      "type": "function"
    },
    {
      "constant": true,
      "inputs": [],
      "name": "contributionRejected",
      "outputs": [
        {
          "name": "",
          "type": "uint256"
        }
      ],
      "payable": false,
      "stateMutability": "view",
      "type": "function"
    },
    {
      "constant": false,
      "inputs": [],
      "name": "refund",
      "outputs": [],
      "payable": false,
      "stateMutability": "nonpayable",
      "type": "function"
    },
    {
      "constant": false,
      "inputs": [
        {
          "name": "id",
          "type": "string"
        }
      ],
      "name": "apply",
      "outputs": [],
      "payable": true,
      "stateMutability": "payable",
      "type": "function"
    },
    {
      "constant": true,
      "inputs": [],
      "name": "contributionPending",
      "outputs": [
        {
          "name": "",
          "type": "uint256"
        }
      ],
      "payable": false,
      "stateMutability": "view",
      "type": "function"
    },
    {
      "constant": true,
      "inputs": [
        {
          "name": "",
          "type": "address"
        }
      ],
      "name": "applications",
      "outputs": [
        {
          "name": "contribution",
          "type": "uint256"
        },
        {
          "name": "id",
          "type": "string"
        },
        {
          "name": "state",
          "type": "uint8"
        }
      ],
      "payable": false,
      "stateMutability": "view",
      "type": "function"
    },
    {
      "constant": true,
      "inputs": [],
      "name": "owner",
      "outputs": [
        {
          "name": "",
          "type": "address"
        }
      ],
      "payable": false,
      "stateMutability": "view",
      "type": "function"
    },
    {
      "constant": false,
      "inputs": [
        {
          "name": "applicant",
          "type": "address"
        }
      ],
      "name": "accept",
      "outputs": [],
      "payable": false,
      "stateMutability": "nonpayable",
      "type": "function"
    },
    {
      "constant": true,
      "inputs": [],
      "name": "minContribution",
      "outputs": [
        {
          "name": "",
          "type": "uint256"
        }
      ],
      "payable": false,
      "stateMutability": "view",
      "type": "function"
    },
    {
      "constant": false,
      "inputs": [
        {
          "name": "applicant",
          "type": "address"
        }
      ],
      "name": "reject",
      "outputs": [],
      "payable": false,
      "stateMutability": "nonpayable",
      "type": "function"
    },
    {
      "constant": true,
      "inputs": [],
      "name": "endDate",
      "outputs": [
        {
          "name": "",
          "type": "uint256"
        }
      ],
      "payable": false,
      "stateMutability": "view",
      "type": "function"
    },
    {
      "constant": true,
      "inputs": [],
      "name": "contributionAccepted",
      "outputs": [
        {
          "name": "",
          "type": "uint256"
        }
      ],
      "payable": false,
      "stateMutability": "view",
      "type": "function"
    },
    {
      "constant": true,
      "inputs": [],
      "name": "withdrawn",
      "outputs": [
        {
          "name": "",
          "type": "uint256"
        }
      ],
      "payable": false,
      "stateMutability": "view",
      "type": "function"
    },
    {
      "constant": true,
      "inputs": [],
      "name": "target",
      "outputs": [
        {
          "name": "",
          "type": "address"
        }
      ],
      "payable": false,
      "stateMutability": "view",
      "type": "function"
    },
    {
      "inputs": [
        {
          "name": "target_",
          "type": "address"
        },
        {
          "name": "endDate_",
          "type": "uint256"
        },
        {
          "name": "minContribution_",
          "type": "uint256"
        },
        {
          "name": "minCap_",
          "type": "uint256"
        },
        {
          "name": "maxCap_",
          "type": "uint256"
        }
      ],
      "payable": false,
      "stateMutability": "nonpayable",
      "type": "constructor"
    },
    {
      "anonymous": false,
      "inputs": [
        {
          "indexed": false,
          "name": "applicant",
          "type": "address"
        },
        {
          "indexed": false,
          "name": "contribution",
          "type": "uint256"
        },
        {
          "indexed": false,
          "name": "id",
          "type": "string"
        }
      ],
      "name": "PendingApplication",
      "type": "event"
    },
    {
      "anonymous": false,
      "inputs": [
        {
          "indexed": false,
          "name": "applicant",
          "type": "address"
        },
        {
          "indexed": false,
          "name": "contribution",
          "type": "uint256"
        },
        {
          "indexed": false,
          "name": "id",
          "type": "string"
        }
      ],
      "name": "RejectedApplication",
      "type": "event"
    },
    {
      "anonymous": false,
      "inputs": [
        {
          "indexed": false,
          "name": "applicant",
          "type": "address"
        },
        {
          "indexed": false,
          "name": "contribution",
          "type": "uint256"
        },
        {
          "indexed": false,
          "name": "id",
          "type": "string"
        }
      ],
      "name": "AcceptedApplication",
      "type": "event"
    },
    {
      "anonymous": false,
      "inputs": [
        {
          "indexed": false,
          "name": "target",
          "type": "address"
        },
        {
          "indexed": false,
          "name": "amount",
          "type": "uint256"
        }
      ],
      "name": "Withdrawn",
      "type": "event"
    },
    {
      "anonymous": false,
      "inputs": [
        {
          "indexed": false,
          "name": "target",
          "type": "address"
        },
        {
          "indexed": false,
          "name": "amount",
          "type": "uint256"
        }
      ],
      "name": "Refund",
      "type": "event"
    }
  ],
  "bytecode": "0x6060604052341561000f57600080fd5b60405160a0806114a783398101604052808051906020019091908051906020019091908051906020019091908051906020019091908051906020019091905050336000806101000a81548173ffffffffffffffffffffffffffffffffffffffff021916908373ffffffffffffffffffffffffffffffffffffffff16021790555084600160006101000a81548173ffffffffffffffffffffffffffffffffffffffff021916908373ffffffffffffffffffffffffffffffffffffffff1602179055508360028190555082600381905550816004819055508060058190555050505050506113a7806101006000396000f3006060604052600436106100e6576000357c0100000000000000000000000000000000000000000000000000000000900463ffffffff16806323548b8b146100eb5780632e1a7d4d146101145780633fa615b014610137578063538dfcac14610160578063590e1ae3146101895780635a18ae3d1461019e57806365e9cc4e146101f05780637c3bf42d146102195780638da5cb5b146103045780639f00592014610359578063aaffadf314610392578063ab0da5a9146103bb578063c24a0f8b146103f4578063c6deeb9d1461041d578063c80ec52214610446578063d4b839921461046f575b600080fd5b34156100f657600080fd5b6100fe6104c4565b6040518082815260200191505060405180910390f35b341561011f57600080fd5b61013560048080359060200190919050506104ca565b005b341561014257600080fd5b61014a610651565b6040518082815260200191505060405180910390f35b341561016b57600080fd5b610173610657565b6040518082815260200191505060405180910390f35b341561019457600080fd5b61019c61065d565b005b6101ee600480803590602001908201803590602001908080601f0160208091040260200160405190810160405280939291908181526020018383808284378201915050505050509190505061088f565b005b34156101fb57600080fd5b610203610ae3565b6040518082815260200191505060405180910390f35b341561022457600080fd5b610250600480803573ffffffffffffffffffffffffffffffffffffffff16906020019091905050610ae9565b604051808481526020018060200183600481111561026a57fe5b60ff1681526020018281038252848181546001816001161561010002031660029004815260200191508054600181600116156101000203166002900480156102f35780601f106102c8576101008083540402835291602001916102f3565b820191906000526020600020905b8154815290600101906020018083116102d657829003601f168201915b505094505050505060405180910390f35b341561030f57600080fd5b610317610b1f565b604051808273ffffffffffffffffffffffffffffffffffffffff1673ffffffffffffffffffffffffffffffffffffffff16815260200191505060405180910390f35b341561036457600080fd5b610390600480803573ffffffffffffffffffffffffffffffffffffffff16906020019091905050610b44565b005b341561039d57600080fd5b6103a5610ee9565b6040518082815260200191505060405180910390f35b34156103c657600080fd5b6103f2600480803573ffffffffffffffffffffffffffffffffffffffff16906020019091905050610eef565b005b34156103ff57600080fd5b61040761129e565b6040518082815260200191505060405180910390f35b341561042857600080fd5b6104306112a4565b6040518082815260200191505060405180910390f35b341561045157600080fd5b6104596112aa565b6040518082815260200191505060405180910390f35b341561047a57600080fd5b6104826112b0565b604051808273ffffffffffffffffffffffffffffffffffffffff1673ffffffffffffffffffffffffffffffffffffffff16815260200191505060405180910390f35b60055481565b6000809054906101000a900473ffffffffffffffffffffffffffffffffffffffff1673ffffffffffffffffffffffffffffffffffffffff163373ffffffffffffffffffffffffffffffffffffffff1614151561052557600080fd5b6004546009541015151561053857600080fd5b8060095481600a54011115151561054e57600080fd5b81600a60008282540192505081905550600160009054906101000a900473ffffffffffffffffffffffffffffffffffffffff1673ffffffffffffffffffffffffffffffffffffffff166108fc839081150290604051600060405180830381858888f1935050505015156105c057600080fd5b7f7084f5476618d8e60b11ef0d7d3f06914655adb8793e28ff7f018d4c76d505d5600160009054906101000a900473ffffffffffffffffffffffffffffffffffffffff1683604051808373ffffffffffffffffffffffffffffffffffffffff1673ffffffffffffffffffffffffffffffffffffffff1681526020018281526020019250505060405180910390a15050565b60045481565b60085481565b600254421015151561066e57600080fd5b6004546007546009540110151561068457600080fd5b336003600481111561069257fe5b600660008373ffffffffffffffffffffffffffffffffffffffff1673ffffffffffffffffffffffffffffffffffffffff16815260200190815260200160002060020160009054906101000a900460ff1660048111156106ed57fe5b1415156106f957600080fd5b6004600660003373ffffffffffffffffffffffffffffffffffffffff1673ffffffffffffffffffffffffffffffffffffffff16815260200190815260200160002060020160006101000a81548160ff0219169083600481111561075857fe5b02179055503373ffffffffffffffffffffffffffffffffffffffff166108fc600660003373ffffffffffffffffffffffffffffffffffffffff1673ffffffffffffffffffffffffffffffffffffffff168152602001908152602001600020600001549081150290604051600060405180830381858888f1935050505015156107df57600080fd5b7fbb28353e4598c3b9199101a66e0989549b659a59a54d2c27fbb183f1932c8e6d33600660003373ffffffffffffffffffffffffffffffffffffffff1673ffffffffffffffffffffffffffffffffffffffff16815260200190815260200160002060000154604051808373ffffffffffffffffffffffffffffffffffffffff1673ffffffffffffffffffffffffffffffffffffffff1681526020018281526020019250505060405180910390a150565b60025442111515156108a057600080fd5b60035434101515156108b157600080fd5b600554346009546007540101111515156108ca57600080fd5b600060048111156108d757fe5b600660003373ffffffffffffffffffffffffffffffffffffffff1673ffffffffffffffffffffffffffffffffffffffff16815260200190815260200160002060020160009054906101000a900460ff16600481111561093257fe5b14151561093e57600080fd5b6060604051908101604052803481526020018281526020016001600481111561096357fe5b815250600660003373ffffffffffffffffffffffffffffffffffffffff1673ffffffffffffffffffffffffffffffffffffffff1681526020019081526020016000206000820151816000015560208201518160010190805190602001906109cb9291906112d6565b5060408201518160020160006101000a81548160ff021916908360048111156109f057fe5b0217905550905050346007600082825401925050819055507f7fcae430b6922754ad71fe39a9730965c7caaa6ed795094f0fc4b925f78e4d46333483604051808473ffffffffffffffffffffffffffffffffffffffff1673ffffffffffffffffffffffffffffffffffffffff16815260200183815260200180602001828103825283818151815260200191508051906020019080838360005b83811015610aa4578082015181840152602081019050610a89565b50505050905090810190601f168015610ad15780820380516001836020036101000a031916815260200191505b5094505050505060405180910390a150565b60075481565b600660205280600052604060002060009150905080600001549080600101908060020160009054906101000a900460ff16905083565b6000809054906101000a900473ffffffffffffffffffffffffffffffffffffffff1681565b6000809054906101000a900473ffffffffffffffffffffffffffffffffffffffff1673ffffffffffffffffffffffffffffffffffffffff163373ffffffffffffffffffffffffffffffffffffffff16141515610b9f57600080fd5b806000600660008373ffffffffffffffffffffffffffffffffffffffff1673ffffffffffffffffffffffffffffffffffffffff16815260200190815260200160002060000154111515610bf157600080fd5b60016004811115610bfe57fe5b600660008373ffffffffffffffffffffffffffffffffffffffff1673ffffffffffffffffffffffffffffffffffffffff16815260200190815260200160002060020160009054906101000a900460ff166004811115610c5957fe5b141515610c6557600080fd5b6003600660008473ffffffffffffffffffffffffffffffffffffffff1673ffffffffffffffffffffffffffffffffffffffff16815260200190815260200160002060020160006101000a81548160ff02191690836004811115610cc457fe5b0217905550600660008373ffffffffffffffffffffffffffffffffffffffff1673ffffffffffffffffffffffffffffffffffffffff16815260200190815260200160002060000154600760008282540392505081905550600660008373ffffffffffffffffffffffffffffffffffffffff1673ffffffffffffffffffffffffffffffffffffffff168152602001908152602001600020600001546009600082825401925050819055507f0328247363b9cdb965452c1a970b0e834765959fb322d6301063528eee398cc382600660008573ffffffffffffffffffffffffffffffffffffffff1673ffffffffffffffffffffffffffffffffffffffff16815260200190815260200160002060000154600660008673ffffffffffffffffffffffffffffffffffffffff1673ffffffffffffffffffffffffffffffffffffffff168152602001908152602001600020600101604051808473ffffffffffffffffffffffffffffffffffffffff1673ffffffffffffffffffffffffffffffffffffffff16815260200183815260200180602001828103825283818154600181600116156101000203166002900481526020019150805460018160011615610100020316600290048015610ed55780601f10610eaa57610100808354040283529160200191610ed5565b820191906000526020600020905b815481529060010190602001808311610eb857829003601f168201915b505094505050505060405180910390a15050565b60035481565b60008060009054906101000a900473ffffffffffffffffffffffffffffffffffffffff1673ffffffffffffffffffffffffffffffffffffffff163373ffffffffffffffffffffffffffffffffffffffff16141515610f4c57600080fd5b816000600660008373ffffffffffffffffffffffffffffffffffffffff1673ffffffffffffffffffffffffffffffffffffffff16815260200190815260200160002060000154111515610f9e57600080fd5b60016004811115610fab57fe5b600660008373ffffffffffffffffffffffffffffffffffffffff1673ffffffffffffffffffffffffffffffffffffffff16815260200190815260200160002060020160009054906101000a900460ff16600481111561100657fe5b14151561101257600080fd5b6002600660008573ffffffffffffffffffffffffffffffffffffffff1673ffffffffffffffffffffffffffffffffffffffff16815260200190815260200160002060020160006101000a81548160ff0219169083600481111561107157fe5b0217905550600660008473ffffffffffffffffffffffffffffffffffffffff1673ffffffffffffffffffffffffffffffffffffffff1681526020019081526020016000206000015491506000600660008573ffffffffffffffffffffffffffffffffffffffff1673ffffffffffffffffffffffffffffffffffffffff168152602001908152602001600020600001819055508273ffffffffffffffffffffffffffffffffffffffff166108fc839081150290604051600060405180830381858888f19350505050151561114357600080fd5b81600760008282540392505081905550816008600082825401925050819055507f79103c2ed2e3f8617ea397a045f0421865834bbeaa2488ce4b4ea2fcdd3cacf88383600660008773ffffffffffffffffffffffffffffffffffffffff1673ffffffffffffffffffffffffffffffffffffffff168152602001908152602001600020600101604051808473ffffffffffffffffffffffffffffffffffffffff1673ffffffffffffffffffffffffffffffffffffffff168152602001838152602001806020018281038252838181546001816001161561010002031660029004815260200191508054600181600116156101000203166002900480156112895780601f1061125e57610100808354040283529160200191611289565b820191906000526020600020905b81548152906001019060200180831161126c57829003601f168201915b505094505050505060405180910390a1505050565b60025481565b60095481565b600a5481565b600160009054906101000a900473ffffffffffffffffffffffffffffffffffffffff1681565b828054600181600116156101000203166002900490600052602060002090601f016020900481019282601f1061131757805160ff1916838001178555611345565b82800160010185558215611345579182015b82811115611344578251825591602001919060010190611329565b5b5090506113529190611356565b5090565b61137891905b8082111561137457600081600090555060010161135c565b5090565b905600a165627a7a72305820936b5f61b2aa34777bd443194995c8b83c2b20e947199aa35dab6602a264b4bb0029",
  "source": "pragma solidity ^0.4.18;\r\n\r\n\r\ncontract BlockFoodPreSale {\r\n\r\n    enum ApplicationState {Unset, Pending, Rejected, Accepted, Refunded}\r\n\r\n    struct Application {\r\n        uint contribution;\r\n        string id;\r\n        ApplicationState state;\r\n    }\r\n\r\n\r\n    /*\r\n        Set by constructor\r\n    */\r\n    address public owner;\r\n    address public target;\r\n    uint public endDate;\r\n    uint public minContribution;\r\n    uint public minCap;\r\n    uint public maxCap;\r\n\r\n    /*\r\n        Set by functions\r\n    */\r\n    mapping(address => Application) public applications;\r\n    uint public contributionPending;\r\n    uint public contributionRejected;\r\n    uint public contributionAccepted;\r\n    uint public withdrawn;\r\n\r\n    /*\r\n        Events\r\n    */\r\n    event PendingApplication(address applicant, uint contribution, string id);\r\n    event RejectedApplication(address applicant, uint contribution, string id);\r\n    event AcceptedApplication(address applicant, uint contribution, string id);\r\n    event Withdrawn(address target, uint amount);\r\n    event Refund(address target, uint amount);\r\n\r\n    /*\r\n        Modifiers\r\n    */\r\n    modifier onlyBeforeEnd() {\r\n        require(now <= endDate);\r\n        _;\r\n    }\r\n\r\n    modifier onlyMoreThanMinContribution() {\r\n        require(msg.value >= minContribution);\r\n        _;\r\n    }\r\n\r\n    modifier onlyMaxCapNotReached() {\r\n        require((contributionPending + contributionAccepted + msg.value) <= maxCap);\r\n        _;\r\n    }\r\n\r\n    modifier onlyOwner () {\r\n        require(msg.sender == owner);\r\n        _;\r\n    }\r\n\r\n    modifier onlyNewApplicant () {\r\n        require(applications[msg.sender].state == ApplicationState.Unset);\r\n        _;\r\n    }\r\n\r\n    modifier onlyPendingApplication(address applicant) {\r\n        require(applications[applicant].contribution > 0);\r\n        require(applications[applicant].state == ApplicationState.Pending);\r\n        _;\r\n    }\r\n\r\n    modifier onlyMinCapReached() {\r\n        require(contributionAccepted >= minCap);\r\n        _;\r\n    }\r\n\r\n    modifier onlyNotWithdrawn(uint amount) {\r\n        require(withdrawn + amount <= contributionAccepted);\r\n        _;\r\n    }\r\n\r\n    modifier onlyFailedPreSale() {\r\n        require(now >= endDate);\r\n        require(contributionAccepted + contributionPending < minCap);\r\n        _;\r\n    }\r\n\r\n    modifier onlyAcceptedApplication(address applicant) {\r\n        require(applications[applicant].state == ApplicationState.Accepted);\r\n        _;\r\n    }\r\n\r\n    /*\r\n        Constructor\r\n    */\r\n\r\n    function BlockFoodPreSale(\r\n        address target_,\r\n        uint endDate_,\r\n        uint minContribution_,\r\n        uint minCap_,\r\n        uint maxCap_\r\n    )\r\n    public\r\n    {\r\n        owner = msg.sender;\r\n\r\n        target = target_;\r\n        endDate = endDate_;\r\n        minContribution = minContribution_;\r\n        minCap = minCap_;\r\n        maxCap = maxCap_;\r\n    }\r\n\r\n    function apply(string id)\r\n    payable\r\n    public\r\n    onlyBeforeEnd\r\n    onlyMoreThanMinContribution\r\n    onlyMaxCapNotReached\r\n    onlyNewApplicant\r\n    {\r\n        applications[msg.sender] = Application(msg.value, id, ApplicationState.Pending);\r\n        contributionPending += msg.value;\r\n        PendingApplication(msg.sender, msg.value, id);\r\n    }\r\n\r\n    function reject(address applicant)\r\n    public\r\n    onlyOwner\r\n    onlyPendingApplication(applicant)\r\n    {\r\n        applications[applicant].state = ApplicationState.Rejected;\r\n\r\n        // protection against function reentry on an overriden transfer() function\r\n        uint contribution = applications[applicant].contribution;\r\n        applications[applicant].contribution = 0;\r\n        applicant.transfer(contribution);\r\n\r\n        contributionPending -= contribution;\r\n        contributionRejected += contribution;\r\n\r\n        RejectedApplication(applicant, contribution, applications[applicant].id);\r\n    }\r\n\r\n    function accept(address applicant)\r\n    public\r\n    onlyOwner\r\n    onlyPendingApplication(applicant)\r\n    {\r\n        applications[applicant].state = ApplicationState.Accepted;\r\n\r\n        contributionPending -= applications[applicant].contribution;\r\n        contributionAccepted += applications[applicant].contribution;\r\n\r\n        AcceptedApplication(applicant, applications[applicant].contribution, applications[applicant].id);\r\n    }\r\n\r\n    function withdraw(uint amount)\r\n    public\r\n    onlyOwner\r\n    onlyMinCapReached\r\n    onlyNotWithdrawn(amount)\r\n    {\r\n        withdrawn += amount;\r\n        target.transfer(amount);\r\n        Withdrawn(target, amount);\r\n    }\r\n\r\n    function refund()\r\n    public\r\n    onlyFailedPreSale\r\n    onlyAcceptedApplication(msg.sender)\r\n    {\r\n        applications[msg.sender].state = ApplicationState.Refunded;\r\n        msg.sender.transfer(applications[msg.sender].contribution);\r\n        Refund(msg.sender, applications[msg.sender].contribution);\r\n    }\r\n}\r\n",
  "sourcePath": "C:\\dev\\perso\\smart-contract-pre-sale\\contracts\\BlockFoodPreSale.sol",
  "compiler": {
    "name": "solc",
    "version": "0.4.18+commit.9cf6e910.Emscripten.clang"
  },
  "schemaVersion": "1.0.1",
  "updatedAt": "2017-12-28T14:50:19.810Z"
}