{
  "contractName": "BlockFoodPreSale",
  "abi": [
    {
      "constant": false,
      "inputs": [
        {
          "name": "minCap_",
          "type": "uint256"
        }
      ],
      "name": "changeMinCap",
      "outputs": [],
      "payable": false,
      "stateMutability": "nonpayable",
      "type": "function"
    },
    {
      "constant": true,
      "inputs": [],
      "name": "maxCap",
      "outputs": [
        {
          "name": "",
          "type": "uint256"
        }
      ],
      "payable": false,
      "stateMutability": "view",
      "type": "function"
    },
    {
      "constant": false,
      "inputs": [
        {
          "name": "amount",
          "type": "uint256"
        }
      ],
      "name": "withdraw",
      "outputs": [],
      "payable": false,
      "stateMutability": "nonpayable",
      "type": "function"
    },
    {
      "constant": true,
      "inputs": [],
      "name": "minCap",
      "outputs": [
        {
          "name": "",
          "type": "uint256"
        }
      ],
      "payable": false,
      "stateMutability": "view",
      "type": "function"
    },
    {
      "constant": false,
      "inputs": [],
      "name": "failsafe",
      "outputs": [],
      "payable": false,
      "stateMutability": "nonpayable",
      "type": "function"
    },
    {
      "constant": true,
      "inputs": [],
      "name": "contributionRejected",
      "outputs": [
        {
          "name": "",
          "type": "uint256"
        }
      ],
      "payable": false,
      "stateMutability": "view",
      "type": "function"
    },
    {
      "constant": false,
      "inputs": [],
      "name": "refund",
      "outputs": [],
      "payable": false,
      "stateMutability": "nonpayable",
      "type": "function"
    },
    {
      "constant": false,
      "inputs": [
        {
          "name": "id",
          "type": "string"
        }
      ],
      "name": "apply",
      "outputs": [],
      "payable": true,
      "stateMutability": "payable",
      "type": "function"
    },
    {
      "constant": true,
      "inputs": [
        {
          "name": "",
          "type": "uint256"
        }
      ],
      "name": "applicants",
      "outputs": [
        {
          "name": "applicant",
          "type": "address"
        },
        {
          "name": "id",
          "type": "string"
        }
      ],
      "payable": false,
      "stateMutability": "view",
      "type": "function"
    },
    {
      "constant": true,
      "inputs": [],
      "name": "contributionPending",
      "outputs": [
        {
          "name": "",
          "type": "uint256"
        }
      ],
      "payable": false,
      "stateMutability": "view",
      "type": "function"
    },
    {
      "constant": false,
      "inputs": [
        {
          "name": "maxCap_",
          "type": "uint256"
        }
      ],
      "name": "changeMaxCap",
      "outputs": [],
      "payable": false,
      "stateMutability": "nonpayable",
      "type": "function"
    },
    {
      "constant": true,
      "inputs": [
        {
          "name": "",
          "type": "address"
        }
      ],
      "name": "applications",
      "outputs": [
        {
          "name": "contribution",
          "type": "uint256"
        },
        {
          "name": "id",
          "type": "string"
        },
        {
          "name": "state",
          "type": "uint8"
        }
      ],
      "payable": false,
      "stateMutability": "view",
      "type": "function"
    },
    {
      "constant": true,
      "inputs": [],
      "name": "owner",
      "outputs": [
        {
          "name": "",
          "type": "address"
        }
      ],
      "payable": false,
      "stateMutability": "view",
      "type": "function"
    },
    {
      "constant": false,
      "inputs": [
        {
          "name": "applicant",
          "type": "address"
        }
      ],
      "name": "accept",
      "outputs": [],
      "payable": false,
      "stateMutability": "nonpayable",
      "type": "function"
    },
    {
      "constant": false,
      "inputs": [
        {
          "name": "owner_",
          "type": "address"
        }
      ],
      "name": "changeOwner",
      "outputs": [],
      "payable": false,
      "stateMutability": "nonpayable",
      "type": "function"
    },
    {
      "constant": true,
      "inputs": [],
      "name": "getMaximumContributionPossible",
      "outputs": [
        {
          "name": "",
          "type": "uint256"
        }
      ],
      "payable": false,
      "stateMutability": "view",
      "type": "function"
    },
    {
      "constant": true,
      "inputs": [],
      "name": "minContribution",
      "outputs": [
        {
          "name": "",
          "type": "uint256"
        }
      ],
      "payable": false,
      "stateMutability": "view",
      "type": "function"
    },
    {
      "constant": false,
      "inputs": [
        {
          "name": "applicant",
          "type": "address"
        }
      ],
      "name": "reject",
      "outputs": [],
      "payable": false,
      "stateMutability": "nonpayable",
      "type": "function"
    },
    {
      "constant": true,
      "inputs": [],
      "name": "getApplicantsLength",
      "outputs": [
        {
          "name": "",
          "type": "uint256"
        }
      ],
      "payable": false,
      "stateMutability": "view",
      "type": "function"
    },
    {
      "constant": false,
      "inputs": [
        {
          "name": "minContribution_",
          "type": "uint256"
        }
      ],
      "name": "changeMinContribution",
      "outputs": [],
      "payable": false,
      "stateMutability": "nonpayable",
      "type": "function"
    },
    {
      "constant": true,
      "inputs": [],
      "name": "endDate",
      "outputs": [
        {
          "name": "",
          "type": "uint256"
        }
      ],
      "payable": false,
      "stateMutability": "view",
      "type": "function"
    },
    {
      "constant": true,
      "inputs": [],
      "name": "contributionAccepted",
      "outputs": [
        {
          "name": "",
          "type": "uint256"
        }
      ],
      "payable": false,
      "stateMutability": "view",
      "type": "function"
    },
    {
      "constant": true,
      "inputs": [],
      "name": "withdrawn",
      "outputs": [
        {
          "name": "",
          "type": "uint256"
        }
      ],
      "payable": false,
      "stateMutability": "view",
      "type": "function"
    },
    {
      "constant": true,
      "inputs": [],
      "name": "target",
      "outputs": [
        {
          "name": "",
          "type": "address"
        }
      ],
      "payable": false,
      "stateMutability": "view",
      "type": "function"
    },
    {
      "constant": false,
      "inputs": [
        {
          "name": "target_",
          "type": "address"
        }
      ],
      "name": "changeTarget",
      "outputs": [],
      "payable": false,
      "stateMutability": "nonpayable",
      "type": "function"
    },
    {
      "inputs": [
        {
          "name": "target_",
          "type": "address"
        },
        {
          "name": "endDate_",
          "type": "uint256"
        },
        {
          "name": "minContribution_",
          "type": "uint256"
        },
        {
          "name": "minCap_",
          "type": "uint256"
        },
        {
          "name": "maxCap_",
          "type": "uint256"
        }
      ],
      "payable": false,
      "stateMutability": "nonpayable",
      "type": "constructor"
    },
    {
      "anonymous": false,
      "inputs": [
        {
          "indexed": false,
          "name": "applicant",
          "type": "address"
        },
        {
          "indexed": false,
          "name": "contribution",
          "type": "uint256"
        },
        {
          "indexed": false,
          "name": "id",
          "type": "string"
        }
      ],
      "name": "PendingApplication",
      "type": "event"
    },
    {
      "anonymous": false,
      "inputs": [
        {
          "indexed": false,
          "name": "applicant",
          "type": "address"
        },
        {
          "indexed": false,
          "name": "contribution",
          "type": "uint256"
        },
        {
          "indexed": false,
          "name": "id",
          "type": "string"
        }
      ],
      "name": "RejectedApplication",
      "type": "event"
    },
    {
      "anonymous": false,
      "inputs": [
        {
          "indexed": false,
          "name": "applicant",
          "type": "address"
        },
        {
          "indexed": false,
          "name": "contribution",
          "type": "uint256"
        },
        {
          "indexed": false,
          "name": "id",
          "type": "string"
        }
      ],
      "name": "AcceptedApplication",
      "type": "event"
    },
    {
      "anonymous": false,
      "inputs": [
        {
          "indexed": false,
          "name": "target",
          "type": "address"
        },
        {
          "indexed": false,
          "name": "amount",
          "type": "uint256"
        }
      ],
      "name": "Withdrawn",
      "type": "event"
    },
    {
      "anonymous": false,
      "inputs": [
        {
          "indexed": false,
          "name": "target",
          "type": "address"
        },
        {
          "indexed": false,
          "name": "amount",
          "type": "uint256"
        }
      ],
      "name": "Refund",
      "type": "event"
    },
    {
      "anonymous": false,
      "inputs": [
        {
          "indexed": false,
          "name": "owner",
          "type": "address"
        },
        {
          "indexed": false,
          "name": "target",
          "type": "address"
        },
        {
          "indexed": false,
          "name": "minContribution",
          "type": "uint256"
        },
        {
          "indexed": false,
          "name": "minCap",
          "type": "uint256"
        },
        {
          "indexed": false,
          "name": "maxCap",
          "type": "uint256"
        }
      ],
      "name": "ContractUpdate",
      "type": "event"
    }
  ],
  "bytecode": "0x6060604052341561000f57600080fd5b60405160a08061215b83398101604052808051906020019091908051906020019091908051906020019091908051906020019091908051906020019091905050336000806101000a81548173ffffffffffffffffffffffffffffffffffffffff021916908373ffffffffffffffffffffffffffffffffffffffff16021790555084600160006101000a81548173ffffffffffffffffffffffffffffffffffffffff021916908373ffffffffffffffffffffffffffffffffffffffff16021790555083600281905550826003819055508160048190555080600581905550505050505061205b806101006000396000f300606060405260043610610149576000357c0100000000000000000000000000000000000000000000000000000000900463ffffffff168063151726cf1461014e57806323548b8b146101715780632e1a7d4d1461019a5780633fa615b0146101bd578063474a88cb146101e6578063538dfcac146101fb578063590e1ae3146102245780635a18ae3d1461023957806363de53231461028b57806365e9cc4e146103775780636d1e839c146103a05780637c3bf42d146103c35780638da5cb5b146104ae5780639f00592014610503578063a6f9dae11461053c578063aa6217eb14610575578063aaffadf31461059e578063ab0da5a9146105c7578063ad3704c514610600578063b3b81d3814610629578063c24a0f8b1461064c578063c6deeb9d14610675578063c80ec5221461069e578063d4b83992146106c7578063dcf7bb5c1461071c575b600080fd5b341561015957600080fd5b61016f6004808035906020019091905050610755565b005b341561017c57600080fd5b6101846108b2565b6040518082815260200191505060405180910390f35b34156101a557600080fd5b6101bb60048080359060200190919050506108b8565b005b34156101c857600080fd5b6101d0610a3f565b6040518082815260200191505060405180910390f35b34156101f157600080fd5b6101f9610a45565b005b341561020657600080fd5b61020e610b30565b6040518082815260200191505060405180910390f35b341561022f57600080fd5b610237610b36565b005b610289600480803590602001908201803590602001908080601f01602080910402602001604051908101604052809392919081815260200183838082843782019150505050505091905050610d68565b005b341561029657600080fd5b6102ac6004808035906020019091905050611073565b604051808373ffffffffffffffffffffffffffffffffffffffff1673ffffffffffffffffffffffffffffffffffffffff168152602001806020018281038252838181546001816001161561010002031660029004815260200191508054600181600116156101000203166002900480156103675780601f1061033c57610100808354040283529160200191610367565b820191906000526020600020905b81548152906001019060200180831161034a57829003601f168201915b5050935050505060405180910390f35b341561038257600080fd5b61038a6110c5565b6040518082815260200191505060405180910390f35b34156103ab57600080fd5b6103c160048080359060200190919050506110cb565b005b34156103ce57600080fd5b6103fa600480803573ffffffffffffffffffffffffffffffffffffffff16906020019091905050611228565b604051808481526020018060200183600481111561041457fe5b60ff16815260200182810382528481815460018160011615610100020316600290048152602001915080546001816001161561010002031660029004801561049d5780601f106104725761010080835404028352916020019161049d565b820191906000526020600020905b81548152906001019060200180831161048057829003601f168201915b505094505050505060405180910390f35b34156104b957600080fd5b6104c161125e565b604051808273ffffffffffffffffffffffffffffffffffffffff1673ffffffffffffffffffffffffffffffffffffffff16815260200191505060405180910390f35b341561050e57600080fd5b61053a600480803573ffffffffffffffffffffffffffffffffffffffff16906020019091905050611283565b005b341561054757600080fd5b610573600480803573ffffffffffffffffffffffffffffffffffffffff16906020019091905050611628565b005b341561058057600080fd5b6105886117be565b6040518082815260200191505060405180910390f35b34156105a957600080fd5b6105b16117cc565b6040518082815260200191505060405180910390f35b34156105d257600080fd5b6105fe600480803573ffffffffffffffffffffffffffffffffffffffff169060200190919050506117d2565b005b341561060b57600080fd5b610613611b81565b6040518082815260200191505060405180910390f35b341561063457600080fd5b61064a6004808035906020019091905050611b8e565b005b341561065757600080fd5b61065f611ceb565b6040518082815260200191505060405180910390f35b341561068057600080fd5b610688611cf1565b6040518082815260200191505060405180910390f35b34156106a957600080fd5b6106b1611cf7565b6040518082815260200191505060405180910390f35b34156106d257600080fd5b6106da611cfd565b604051808273ffffffffffffffffffffffffffffffffffffffff1673ffffffffffffffffffffffffffffffffffffffff16815260200191505060405180910390f35b341561072757600080fd5b610753600480803573ffffffffffffffffffffffffffffffffffffffff16906020019091905050611d23565b005b6000809054906101000a900473ffffffffffffffffffffffffffffffffffffffff1673ffffffffffffffffffffffffffffffffffffffff163373ffffffffffffffffffffffffffffffffffffffff161415156107b057600080fd5b806004819055507f091dbc20bcadb495b4b9fce3a3594b7084c1798ea3edd9c049d3fa5e4c85af086000809054906101000a900473ffffffffffffffffffffffffffffffffffffffff16600160009054906101000a900473ffffffffffffffffffffffffffffffffffffffff16600354600454600554604051808673ffffffffffffffffffffffffffffffffffffffff1673ffffffffffffffffffffffffffffffffffffffff1681526020018573ffffffffffffffffffffffffffffffffffffffff1673ffffffffffffffffffffffffffffffffffffffff1681526020018481526020018381526020018281526020019550505050505060405180910390a150565b60055481565b6000809054906101000a900473ffffffffffffffffffffffffffffffffffffffff1673ffffffffffffffffffffffffffffffffffffffff163373ffffffffffffffffffffffffffffffffffffffff1614151561091357600080fd5b600454600a541015151561092657600080fd5b80600a5481600b54011115151561093c57600080fd5b81600b60008282540192505081905550600160009054906101000a900473ffffffffffffffffffffffffffffffffffffffff1673ffffffffffffffffffffffffffffffffffffffff166108fc839081150290604051600060405180830381858888f1935050505015156109ae57600080fd5b7f7084f5476618d8e60b11ef0d7d3f06914655adb8793e28ff7f018d4c76d505d5600160009054906101000a900473ffffffffffffffffffffffffffffffffffffffff1683604051808373ffffffffffffffffffffffffffffffffffffffff1673ffffffffffffffffffffffffffffffffffffffff1681526020018281526020019250505060405180910390a15050565b60045481565b6000809054906101000a900473ffffffffffffffffffffffffffffffffffffffff1673ffffffffffffffffffffffffffffffffffffffff163373ffffffffffffffffffffffffffffffffffffffff16141515610aa057600080fd5b624f1a006002540142111515610ab557600080fd5b600160009054906101000a900473ffffffffffffffffffffffffffffffffffffffff1673ffffffffffffffffffffffffffffffffffffffff166108fc3073ffffffffffffffffffffffffffffffffffffffff16319081150290604051600060405180830381858888f193505050501515610b2e57600080fd5b565b60095481565b6002544210151515610b4757600080fd5b600454600854600a5401101515610b5d57600080fd5b3360036004811115610b6b57fe5b600660008373ffffffffffffffffffffffffffffffffffffffff1673ffffffffffffffffffffffffffffffffffffffff16815260200190815260200160002060020160009054906101000a900460ff166004811115610bc657fe5b141515610bd257600080fd5b6004600660003373ffffffffffffffffffffffffffffffffffffffff1673ffffffffffffffffffffffffffffffffffffffff16815260200190815260200160002060020160006101000a81548160ff02191690836004811115610c3157fe5b02179055503373ffffffffffffffffffffffffffffffffffffffff166108fc600660003373ffffffffffffffffffffffffffffffffffffffff1673ffffffffffffffffffffffffffffffffffffffff168152602001908152602001600020600001549081150290604051600060405180830381858888f193505050501515610cb857600080fd5b7fbb28353e4598c3b9199101a66e0989549b659a59a54d2c27fbb183f1932c8e6d33600660003373ffffffffffffffffffffffffffffffffffffffff1673ffffffffffffffffffffffffffffffffffffffff16815260200190815260200160002060000154604051808373ffffffffffffffffffffffffffffffffffffffff1673ffffffffffffffffffffffffffffffffffffffff1681526020018281526020019250505060405180910390a150565b6002544211151515610d7957600080fd5b6003543410151515610d8a57600080fd5b60055434600a540111151515610d9f57600080fd5b60006004811115610dac57fe5b600660003373ffffffffffffffffffffffffffffffffffffffff1673ffffffffffffffffffffffffffffffffffffffff16815260200190815260200160002060020160009054906101000a900460ff166004811115610e0757fe5b141515610e1357600080fd5b60606040519081016040528034815260200182815260200160016004811115610e3857fe5b815250600660003373ffffffffffffffffffffffffffffffffffffffff1673ffffffffffffffffffffffffffffffffffffffff168152602001908152602001600020600082015181600001556020820151816001019080519060200190610ea0929190611eba565b5060408201518160020160006101000a81548160ff02191690836004811115610ec557fe5b021790555090505060078054806001018281610ee19190611f3a565b9160005260206000209060020201600060408051908101604052803373ffffffffffffffffffffffffffffffffffffffff16815260200185815250909190915060008201518160000160006101000a81548173ffffffffffffffffffffffffffffffffffffffff021916908373ffffffffffffffffffffffffffffffffffffffff1602179055506020820151816001019080519060200190610f84929190611eba565b50505050346008600082825401925050819055507f7fcae430b6922754ad71fe39a9730965c7caaa6ed795094f0fc4b925f78e4d46333483604051808473ffffffffffffffffffffffffffffffffffffffff1673ffffffffffffffffffffffffffffffffffffffff16815260200183815260200180602001828103825283818151815260200191508051906020019080838360005b83811015611034578082015181840152602081019050611019565b50505050905090810190601f1680156110615780820380516001836020036101000a031916815260200191505b5094505050505060405180910390a150565b60078181548110151561108257fe5b90600052602060002090600202016000915090508060000160009054906101000a900473ffffffffffffffffffffffffffffffffffffffff169080600101905082565b60085481565b6000809054906101000a900473ffffffffffffffffffffffffffffffffffffffff1673ffffffffffffffffffffffffffffffffffffffff163373ffffffffffffffffffffffffffffffffffffffff1614151561112657600080fd5b806005819055507f091dbc20bcadb495b4b9fce3a3594b7084c1798ea3edd9c049d3fa5e4c85af086000809054906101000a900473ffffffffffffffffffffffffffffffffffffffff16600160009054906101000a900473ffffffffffffffffffffffffffffffffffffffff16600354600454600554604051808673ffffffffffffffffffffffffffffffffffffffff1673ffffffffffffffffffffffffffffffffffffffff1681526020018573ffffffffffffffffffffffffffffffffffffffff1673ffffffffffffffffffffffffffffffffffffffff1681526020018481526020018381526020018281526020019550505050505060405180910390a150565b600660205280600052604060002060009150905080600001549080600101908060020160009054906101000a900460ff16905083565b6000809054906101000a900473ffffffffffffffffffffffffffffffffffffffff1681565b6000809054906101000a900473ffffffffffffffffffffffffffffffffffffffff1673ffffffffffffffffffffffffffffffffffffffff163373ffffffffffffffffffffffffffffffffffffffff161415156112de57600080fd5b806000600660008373ffffffffffffffffffffffffffffffffffffffff1673ffffffffffffffffffffffffffffffffffffffff1681526020019081526020016000206000015411151561133057600080fd5b6001600481111561133d57fe5b600660008373ffffffffffffffffffffffffffffffffffffffff1673ffffffffffffffffffffffffffffffffffffffff16815260200190815260200160002060020160009054906101000a900460ff16600481111561139857fe5b1415156113a457600080fd5b6003600660008473ffffffffffffffffffffffffffffffffffffffff1673ffffffffffffffffffffffffffffffffffffffff16815260200190815260200160002060020160006101000a81548160ff0219169083600481111561140357fe5b0217905550600660008373ffffffffffffffffffffffffffffffffffffffff1673ffffffffffffffffffffffffffffffffffffffff16815260200190815260200160002060000154600860008282540392505081905550600660008373ffffffffffffffffffffffffffffffffffffffff1673ffffffffffffffffffffffffffffffffffffffff16815260200190815260200160002060000154600a600082825401925050819055507f0328247363b9cdb965452c1a970b0e834765959fb322d6301063528eee398cc382600660008573ffffffffffffffffffffffffffffffffffffffff1673ffffffffffffffffffffffffffffffffffffffff16815260200190815260200160002060000154600660008673ffffffffffffffffffffffffffffffffffffffff1673ffffffffffffffffffffffffffffffffffffffff168152602001908152602001600020600101604051808473ffffffffffffffffffffffffffffffffffffffff1673ffffffffffffffffffffffffffffffffffffffff168152602001838152602001806020018281038252838181546001816001161561010002031660029004815260200191508054600181600116156101000203166002900480156116145780601f106115e957610100808354040283529160200191611614565b820191906000526020600020905b8154815290600101906020018083116115f757829003601f168201915b505094505050505060405180910390a15050565b6000809054906101000a900473ffffffffffffffffffffffffffffffffffffffff1673ffffffffffffffffffffffffffffffffffffffff163373ffffffffffffffffffffffffffffffffffffffff1614151561168357600080fd5b806000806101000a81548173ffffffffffffffffffffffffffffffffffffffff021916908373ffffffffffffffffffffffffffffffffffffffff1602179055507f091dbc20bcadb495b4b9fce3a3594b7084c1798ea3edd9c049d3fa5e4c85af086000809054906101000a900473ffffffffffffffffffffffffffffffffffffffff16600160009054906101000a900473ffffffffffffffffffffffffffffffffffffffff16600354600454600554604051808673ffffffffffffffffffffffffffffffffffffffff1673ffffffffffffffffffffffffffffffffffffffff1681526020018573ffffffffffffffffffffffffffffffffffffffff1673ffffffffffffffffffffffffffffffffffffffff1681526020018481526020018381526020018281526020019550505050505060405180910390a150565b6000600a5460055403905090565b60035481565b60008060009054906101000a900473ffffffffffffffffffffffffffffffffffffffff1673ffffffffffffffffffffffffffffffffffffffff163373ffffffffffffffffffffffffffffffffffffffff1614151561182f57600080fd5b816000600660008373ffffffffffffffffffffffffffffffffffffffff1673ffffffffffffffffffffffffffffffffffffffff1681526020019081526020016000206000015411151561188157600080fd5b6001600481111561188e57fe5b600660008373ffffffffffffffffffffffffffffffffffffffff1673ffffffffffffffffffffffffffffffffffffffff16815260200190815260200160002060020160009054906101000a900460ff1660048111156118e957fe5b1415156118f557600080fd5b6002600660008573ffffffffffffffffffffffffffffffffffffffff1673ffffffffffffffffffffffffffffffffffffffff16815260200190815260200160002060020160006101000a81548160ff0219169083600481111561195457fe5b0217905550600660008473ffffffffffffffffffffffffffffffffffffffff1673ffffffffffffffffffffffffffffffffffffffff1681526020019081526020016000206000015491506000600660008573ffffffffffffffffffffffffffffffffffffffff1673ffffffffffffffffffffffffffffffffffffffff168152602001908152602001600020600001819055508273ffffffffffffffffffffffffffffffffffffffff166108fc839081150290604051600060405180830381858888f193505050501515611a2657600080fd5b81600860008282540392505081905550816009600082825401925050819055507f79103c2ed2e3f8617ea397a045f0421865834bbeaa2488ce4b4ea2fcdd3cacf88383600660008773ffffffffffffffffffffffffffffffffffffffff1673ffffffffffffffffffffffffffffffffffffffff168152602001908152602001600020600101604051808473ffffffffffffffffffffffffffffffffffffffff1673ffffffffffffffffffffffffffffffffffffffff16815260200183815260200180602001828103825283818154600181600116156101000203166002900481526020019150805460018160011615610100020316600290048015611b6c5780601f10611b4157610100808354040283529160200191611b6c565b820191906000526020600020905b815481529060010190602001808311611b4f57829003601f168201915b505094505050505060405180910390a1505050565b6000600780549050905090565b6000809054906101000a900473ffffffffffffffffffffffffffffffffffffffff1673ffffffffffffffffffffffffffffffffffffffff163373ffffffffffffffffffffffffffffffffffffffff16141515611be957600080fd5b806003819055507f091dbc20bcadb495b4b9fce3a3594b7084c1798ea3edd9c049d3fa5e4c85af086000809054906101000a900473ffffffffffffffffffffffffffffffffffffffff16600160009054906101000a900473ffffffffffffffffffffffffffffffffffffffff16600354600454600554604051808673ffffffffffffffffffffffffffffffffffffffff1673ffffffffffffffffffffffffffffffffffffffff1681526020018573ffffffffffffffffffffffffffffffffffffffff1673ffffffffffffffffffffffffffffffffffffffff1681526020018481526020018381526020018281526020019550505050505060405180910390a150565b60025481565b600a5481565b600b5481565b600160009054906101000a900473ffffffffffffffffffffffffffffffffffffffff1681565b6000809054906101000a900473ffffffffffffffffffffffffffffffffffffffff1673ffffffffffffffffffffffffffffffffffffffff163373ffffffffffffffffffffffffffffffffffffffff16141515611d7e57600080fd5b80600160006101000a81548173ffffffffffffffffffffffffffffffffffffffff021916908373ffffffffffffffffffffffffffffffffffffffff1602179055507f091dbc20bcadb495b4b9fce3a3594b7084c1798ea3edd9c049d3fa5e4c85af086000809054906101000a900473ffffffffffffffffffffffffffffffffffffffff16600160009054906101000a900473ffffffffffffffffffffffffffffffffffffffff16600354600454600554604051808673ffffffffffffffffffffffffffffffffffffffff1673ffffffffffffffffffffffffffffffffffffffff1681526020018573ffffffffffffffffffffffffffffffffffffffff1673ffffffffffffffffffffffffffffffffffffffff1681526020018481526020018381526020018281526020019550505050505060405180910390a150565b828054600181600116156101000203166002900490600052602060002090601f016020900481019282601f10611efb57805160ff1916838001178555611f29565b82800160010185558215611f29579182015b82811115611f28578251825591602001919060010190611f0d565b5b509050611f369190611f6c565b5090565b815481835581811511611f6757600202816002028360005260206000209182019101611f669190611f91565b5b505050565b611f8e91905b80821115611f8a576000816000905550600101611f72565b5090565b90565b611fe491905b80821115611fe057600080820160006101000a81549073ffffffffffffffffffffffffffffffffffffffff0219169055600182016000611fd79190611fe7565b50600201611f97565b5090565b90565b50805460018160011615610100020316600290046000825580601f1061200d575061202c565b601f01602090049060005260206000209081019061202b9190611f6c565b5b505600a165627a7a72305820a97569e6c41d34902cb199591de0a74c6ef0cb47c01382987fd4f262f79701570029",
  "source": "pragma solidity ^0.4.18;\r\n\r\n\r\ncontract BlockFoodPreSale {\r\n\r\n    enum ApplicationState {Unset, Pending, Rejected, Accepted, Refunded}\r\n\r\n    struct Application {\r\n        uint contribution;\r\n        string id;\r\n        ApplicationState state;\r\n    }\r\n\r\n    struct Applicant {\r\n        address applicant;\r\n        string id;\r\n    }\r\n\r\n    /*\r\n        Set by constructor\r\n    */\r\n    address public owner;\r\n    address public target;\r\n    uint public endDate;\r\n    uint public minContribution;\r\n    uint public minCap;\r\n    uint public maxCap;\r\n\r\n    /*\r\n        Set by functions\r\n    */\r\n    mapping(address => Application) public applications;\r\n    Applicant[] public applicants;\r\n    uint public contributionPending;\r\n    uint public contributionRejected;\r\n    uint public contributionAccepted;\r\n    uint public withdrawn;\r\n\r\n    /*\r\n        Events\r\n    */\r\n    event PendingApplication(address applicant, uint contribution, string id);\r\n    event RejectedApplication(address applicant, uint contribution, string id);\r\n    event AcceptedApplication(address applicant, uint contribution, string id);\r\n    event Withdrawn(address target, uint amount);\r\n    event Refund(address target, uint amount);\r\n    event ContractUpdate(address owner, address target, uint minContribution, uint minCap, uint maxCap);\r\n\r\n    /*\r\n        Modifiers\r\n    */\r\n    modifier onlyBeforeEnd() {\r\n        require(now <= endDate);\r\n        _;\r\n    }\r\n\r\n    modifier onlyMoreThanMinContribution() {\r\n        require(msg.value >= minContribution);\r\n        _;\r\n    }\r\n\r\n    modifier onlyMaxCapNotReached() {\r\n        require((contributionAccepted + msg.value) <= maxCap);\r\n        _;\r\n    }\r\n\r\n    modifier onlyOwner () {\r\n        require(msg.sender == owner);\r\n        _;\r\n    }\r\n\r\n    modifier onlyNewApplicant () {\r\n        require(applications[msg.sender].state == ApplicationState.Unset);\r\n        _;\r\n    }\r\n\r\n    modifier onlyPendingApplication(address applicant) {\r\n        require(applications[applicant].contribution > 0);\r\n        require(applications[applicant].state == ApplicationState.Pending);\r\n        _;\r\n    }\r\n\r\n    modifier onlyMinCapReached() {\r\n        require(contributionAccepted >= minCap);\r\n        _;\r\n    }\r\n\r\n    modifier onlyNotWithdrawn(uint amount) {\r\n        require(withdrawn + amount <= contributionAccepted);\r\n        _;\r\n    }\r\n\r\n    modifier onlyFailedPreSale() {\r\n        require(now >= endDate);\r\n        require(contributionAccepted + contributionPending < minCap);\r\n        _;\r\n    }\r\n\r\n    modifier onlyAcceptedApplication(address applicant) {\r\n        require(applications[applicant].state == ApplicationState.Accepted);\r\n        _;\r\n    }\r\n\r\n    modifier onlyAfterTwoMonthsAfterTheEnd() {\r\n        require(now > (endDate + 60 days));\r\n        _;\r\n    }\r\n\r\n    modifier sendContractUpdateEvent() {\r\n        _;\r\n        ContractUpdate(owner, target, minContribution, minCap, maxCap);\r\n    }\r\n\r\n    /*\r\n        Constructor\r\n    */\r\n    function BlockFoodPreSale(\r\n        address target_,\r\n        uint endDate_,\r\n        uint minContribution_,\r\n        uint minCap_,\r\n        uint maxCap_\r\n    )\r\n    public\r\n    {\r\n        owner = msg.sender;\r\n\r\n        target = target_;\r\n        endDate = endDate_;\r\n        minContribution = minContribution_;\r\n        minCap = minCap_;\r\n        maxCap = maxCap_;\r\n    }\r\n\r\n    /*\r\n       Public functions\r\n    */\r\n\r\n    function apply(string id)\r\n    payable\r\n    public\r\n    onlyBeforeEnd\r\n    onlyMoreThanMinContribution\r\n    onlyMaxCapNotReached\r\n    onlyNewApplicant\r\n    {\r\n        applications[msg.sender] = Application(msg.value, id, ApplicationState.Pending);\r\n        applicants.push(Applicant(msg.sender, id));\r\n        contributionPending += msg.value;\r\n        PendingApplication(msg.sender, msg.value, id);\r\n    }\r\n\r\n    function refund()\r\n    public\r\n    onlyFailedPreSale\r\n    onlyAcceptedApplication(msg.sender)\r\n    {\r\n        applications[msg.sender].state = ApplicationState.Refunded;\r\n        msg.sender.transfer(applications[msg.sender].contribution);\r\n        Refund(msg.sender, applications[msg.sender].contribution);\r\n    }\r\n\r\n    /*\r\n        Restricted functions (owner only)\r\n    */\r\n\r\n    function reject(address applicant)\r\n    public\r\n    onlyOwner\r\n    onlyPendingApplication(applicant)\r\n    {\r\n        applications[applicant].state = ApplicationState.Rejected;\r\n\r\n        // protection against function reentry on an overriden transfer() function\r\n        uint contribution = applications[applicant].contribution;\r\n        applications[applicant].contribution = 0;\r\n        applicant.transfer(contribution);\r\n\r\n        contributionPending -= contribution;\r\n        contributionRejected += contribution;\r\n\r\n        RejectedApplication(applicant, contribution, applications[applicant].id);\r\n    }\r\n\r\n    function accept(address applicant)\r\n    public\r\n    onlyOwner\r\n    onlyPendingApplication(applicant)\r\n    {\r\n        applications[applicant].state = ApplicationState.Accepted;\r\n\r\n        contributionPending -= applications[applicant].contribution;\r\n        contributionAccepted += applications[applicant].contribution;\r\n\r\n        AcceptedApplication(applicant, applications[applicant].contribution, applications[applicant].id);\r\n    }\r\n\r\n    function withdraw(uint amount)\r\n    public\r\n    onlyOwner\r\n    onlyMinCapReached\r\n    onlyNotWithdrawn(amount)\r\n    {\r\n        withdrawn += amount;\r\n        target.transfer(amount);\r\n        Withdrawn(target, amount);\r\n    }\r\n\r\n    /*\r\n        Views\r\n    */\r\n\r\n    function getApplicantsLength()\r\n    view\r\n    public\r\n    returns (uint)\r\n    {\r\n        return applicants.length;\r\n    }\r\n\r\n    function getMaximumContributionPossible()\r\n    view\r\n    public\r\n    returns (uint)\r\n    {\r\n        return maxCap - contributionAccepted;\r\n    }\r\n\r\n    /*\r\n        Maintenance functions\r\n    */\r\n\r\n    function failsafe()\r\n    public\r\n    onlyOwner\r\n    onlyAfterTwoMonthsAfterTheEnd\r\n    {\r\n        target.transfer(this.balance);\r\n    }\r\n\r\n    function changeOwner(address owner_)\r\n    public\r\n    onlyOwner\r\n    sendContractUpdateEvent\r\n    {\r\n        owner = owner_;\r\n    }\r\n\r\n    function changeTarget(address target_)\r\n    public\r\n    onlyOwner\r\n    sendContractUpdateEvent\r\n    {\r\n        target = target_;\r\n    }\r\n\r\n    function changeMinCap(uint minCap_)\r\n    public\r\n    onlyOwner\r\n    sendContractUpdateEvent\r\n    {\r\n        minCap = minCap_;\r\n    }\r\n\r\n    function changeMaxCap(uint maxCap_)\r\n    public\r\n    onlyOwner\r\n    sendContractUpdateEvent\r\n    {\r\n        maxCap = maxCap_;\r\n    }\r\n\r\n    function changeMinContribution(uint minContribution_)\r\n    public\r\n    onlyOwner\r\n    sendContractUpdateEvent\r\n    {\r\n        minContribution = minContribution_;\r\n    }\r\n\r\n}\r\n",
  "sourcePath": "C:\\dev\\perso\\smart-contract-pre-sale\\contracts\\BlockFoodPreSale.sol",
  "compiler": {
    "name": "solc",
    "version": "0.4.18+commit.9cf6e910.Emscripten.clang"
  },
  "schemaVersion": "1.0.1",
  "updatedAt": "2018-01-05T17:25:13.627Z"
}