{
  "contractName": "BlockFoodPreSale",
  "abi": [
    {
      "constant": true,
      "inputs": [],
      "name": "maxCap",
      "outputs": [
        {
          "name": "",
          "type": "uint256"
        }
      ],
      "payable": false,
      "stateMutability": "view",
      "type": "function"
    },
    {
      "constant": false,
      "inputs": [
        {
          "name": "amount",
          "type": "uint256"
        }
      ],
      "name": "withdraw",
      "outputs": [],
      "payable": false,
      "stateMutability": "nonpayable",
      "type": "function"
    },
    {
      "constant": true,
      "inputs": [],
      "name": "minCap",
      "outputs": [
        {
          "name": "",
          "type": "uint256"
        }
      ],
      "payable": false,
      "stateMutability": "view",
      "type": "function"
    },
    {
      "constant": false,
      "inputs": [],
      "name": "failsafe",
      "outputs": [],
      "payable": false,
      "stateMutability": "nonpayable",
      "type": "function"
    },
    {
      "constant": true,
      "inputs": [],
      "name": "contributionRejected",
      "outputs": [
        {
          "name": "",
          "type": "uint256"
        }
      ],
      "payable": false,
      "stateMutability": "view",
      "type": "function"
    },
    {
      "constant": false,
      "inputs": [],
      "name": "refund",
      "outputs": [],
      "payable": false,
      "stateMutability": "nonpayable",
      "type": "function"
    },
    {
      "constant": false,
      "inputs": [
        {
          "name": "id",
          "type": "string"
        }
      ],
      "name": "apply",
      "outputs": [],
      "payable": true,
      "stateMutability": "payable",
      "type": "function"
    },
    {
      "constant": true,
      "inputs": [
        {
          "name": "",
          "type": "uint256"
        }
      ],
      "name": "applicants",
      "outputs": [
        {
          "name": "applicant",
          "type": "address"
        },
        {
          "name": "id",
          "type": "string"
        }
      ],
      "payable": false,
      "stateMutability": "view",
      "type": "function"
    },
    {
      "constant": true,
      "inputs": [],
      "name": "contributionPending",
      "outputs": [
        {
          "name": "",
          "type": "uint256"
        }
      ],
      "payable": false,
      "stateMutability": "view",
      "type": "function"
    },
    {
      "constant": true,
      "inputs": [
        {
          "name": "",
          "type": "address"
        }
      ],
      "name": "applications",
      "outputs": [
        {
          "name": "contribution",
          "type": "uint256"
        },
        {
          "name": "id",
          "type": "string"
        },
        {
          "name": "state",
          "type": "uint8"
        }
      ],
      "payable": false,
      "stateMutability": "view",
      "type": "function"
    },
    {
      "constant": true,
      "inputs": [],
      "name": "owner",
      "outputs": [
        {
          "name": "",
          "type": "address"
        }
      ],
      "payable": false,
      "stateMutability": "view",
      "type": "function"
    },
    {
      "constant": false,
      "inputs": [
        {
          "name": "applicant",
          "type": "address"
        }
      ],
      "name": "accept",
      "outputs": [],
      "payable": false,
      "stateMutability": "nonpayable",
      "type": "function"
    },
    {
      "constant": false,
      "inputs": [
        {
          "name": "newOwner",
          "type": "address"
        }
      ],
      "name": "changeOwner",
      "outputs": [],
      "payable": false,
      "stateMutability": "nonpayable",
      "type": "function"
    },
    {
      "constant": true,
      "inputs": [],
      "name": "getMaximumContributionPossible",
      "outputs": [
        {
          "name": "",
          "type": "uint256"
        }
      ],
      "payable": false,
      "stateMutability": "view",
      "type": "function"
    },
    {
      "constant": true,
      "inputs": [],
      "name": "minContribution",
      "outputs": [
        {
          "name": "",
          "type": "uint256"
        }
      ],
      "payable": false,
      "stateMutability": "view",
      "type": "function"
    },
    {
      "constant": false,
      "inputs": [
        {
          "name": "applicant",
          "type": "address"
        }
      ],
      "name": "reject",
      "outputs": [],
      "payable": false,
      "stateMutability": "nonpayable",
      "type": "function"
    },
    {
      "constant": true,
      "inputs": [],
      "name": "getApplicantsLength",
      "outputs": [
        {
          "name": "",
          "type": "uint256"
        }
      ],
      "payable": false,
      "stateMutability": "view",
      "type": "function"
    },
    {
      "constant": true,
      "inputs": [],
      "name": "endDate",
      "outputs": [
        {
          "name": "",
          "type": "uint256"
        }
      ],
      "payable": false,
      "stateMutability": "view",
      "type": "function"
    },
    {
      "constant": true,
      "inputs": [],
      "name": "contributionAccepted",
      "outputs": [
        {
          "name": "",
          "type": "uint256"
        }
      ],
      "payable": false,
      "stateMutability": "view",
      "type": "function"
    },
    {
      "constant": true,
      "inputs": [],
      "name": "withdrawn",
      "outputs": [
        {
          "name": "",
          "type": "uint256"
        }
      ],
      "payable": false,
      "stateMutability": "view",
      "type": "function"
    },
    {
      "constant": true,
      "inputs": [],
      "name": "target",
      "outputs": [
        {
          "name": "",
          "type": "address"
        }
      ],
      "payable": false,
      "stateMutability": "view",
      "type": "function"
    },
    {
      "constant": false,
      "inputs": [
        {
          "name": "newTarget",
          "type": "address"
        }
      ],
      "name": "changeTarget",
      "outputs": [],
      "payable": false,
      "stateMutability": "nonpayable",
      "type": "function"
    },
    {
      "inputs": [
        {
          "name": "target_",
          "type": "address"
        },
        {
          "name": "endDate_",
          "type": "uint256"
        },
        {
          "name": "minContribution_",
          "type": "uint256"
        },
        {
          "name": "minCap_",
          "type": "uint256"
        },
        {
          "name": "maxCap_",
          "type": "uint256"
        }
      ],
      "payable": false,
      "stateMutability": "nonpayable",
      "type": "constructor"
    },
    {
      "anonymous": false,
      "inputs": [
        {
          "indexed": false,
          "name": "applicant",
          "type": "address"
        },
        {
          "indexed": false,
          "name": "contribution",
          "type": "uint256"
        },
        {
          "indexed": false,
          "name": "id",
          "type": "string"
        }
      ],
      "name": "PendingApplication",
      "type": "event"
    },
    {
      "anonymous": false,
      "inputs": [
        {
          "indexed": false,
          "name": "applicant",
          "type": "address"
        },
        {
          "indexed": false,
          "name": "contribution",
          "type": "uint256"
        },
        {
          "indexed": false,
          "name": "id",
          "type": "string"
        }
      ],
      "name": "RejectedApplication",
      "type": "event"
    },
    {
      "anonymous": false,
      "inputs": [
        {
          "indexed": false,
          "name": "applicant",
          "type": "address"
        },
        {
          "indexed": false,
          "name": "contribution",
          "type": "uint256"
        },
        {
          "indexed": false,
          "name": "id",
          "type": "string"
        }
      ],
      "name": "AcceptedApplication",
      "type": "event"
    },
    {
      "anonymous": false,
      "inputs": [
        {
          "indexed": false,
          "name": "target",
          "type": "address"
        },
        {
          "indexed": false,
          "name": "amount",
          "type": "uint256"
        }
      ],
      "name": "Withdrawn",
      "type": "event"
    },
    {
      "anonymous": false,
      "inputs": [
        {
          "indexed": false,
          "name": "target",
          "type": "address"
        },
        {
          "indexed": false,
          "name": "amount",
          "type": "uint256"
        }
      ],
      "name": "Refund",
      "type": "event"
    }
  ],
  "bytecode": "0x6060604052341561000f57600080fd5b60405160a080611aca83398101604052808051906020019091908051906020019091908051906020019091908051906020019091908051906020019091905050336000806101000a81548173ffffffffffffffffffffffffffffffffffffffff021916908373ffffffffffffffffffffffffffffffffffffffff16021790555084600160006101000a81548173ffffffffffffffffffffffffffffffffffffffff021916908373ffffffffffffffffffffffffffffffffffffffff1602179055508360028190555082600381905550816004819055508060058190555050505050506119ca806101006000396000f300606060405260043610610128576000357c0100000000000000000000000000000000000000000000000000000000900463ffffffff16806323548b8b1461012d5780632e1a7d4d146101565780633fa615b014610179578063474a88cb146101a2578063538dfcac146101b7578063590e1ae3146101e05780635a18ae3d146101f557806363de53231461024757806365e9cc4e146103335780637c3bf42d1461035c5780638da5cb5b146104475780639f0059201461049c578063a6f9dae1146104d5578063aa6217eb1461050e578063aaffadf314610537578063ab0da5a914610560578063ad3704c514610599578063c24a0f8b146105c2578063c6deeb9d146105eb578063c80ec52214610614578063d4b839921461063d578063dcf7bb5c14610692575b600080fd5b341561013857600080fd5b6101406106cb565b6040518082815260200191505060405180910390f35b341561016157600080fd5b61017760048080359060200190919050506106d1565b005b341561018457600080fd5b61018c610858565b6040518082815260200191505060405180910390f35b34156101ad57600080fd5b6101b561085e565b005b34156101c257600080fd5b6101ca610949565b6040518082815260200191505060405180910390f35b34156101eb57600080fd5b6101f361094f565b005b610245600480803590602001908201803590602001908080601f01602080910402602001604051908101604052809392919081815260200183838082843782019150505050505091905050610b81565b005b341561025257600080fd5b6102686004808035906020019091905050610e8c565b604051808373ffffffffffffffffffffffffffffffffffffffff1673ffffffffffffffffffffffffffffffffffffffff168152602001806020018281038252838181546001816001161561010002031660029004815260200191508054600181600116156101000203166002900480156103235780601f106102f857610100808354040283529160200191610323565b820191906000526020600020905b81548152906001019060200180831161030657829003601f168201915b5050935050505060405180910390f35b341561033e57600080fd5b610346610ede565b6040518082815260200191505060405180910390f35b341561036757600080fd5b610393600480803573ffffffffffffffffffffffffffffffffffffffff16906020019091905050610ee4565b60405180848152602001806020018360048111156103ad57fe5b60ff1681526020018281038252848181546001816001161561010002031660029004815260200191508054600181600116156101000203166002900480156104365780601f1061040b57610100808354040283529160200191610436565b820191906000526020600020905b81548152906001019060200180831161041957829003601f168201915b505094505050505060405180910390f35b341561045257600080fd5b61045a610f1a565b604051808273ffffffffffffffffffffffffffffffffffffffff1673ffffffffffffffffffffffffffffffffffffffff16815260200191505060405180910390f35b34156104a757600080fd5b6104d3600480803573ffffffffffffffffffffffffffffffffffffffff16906020019091905050610f3f565b005b34156104e057600080fd5b61050c600480803573ffffffffffffffffffffffffffffffffffffffff169060200190919050506112e4565b005b341561051957600080fd5b610521611382565b6040518082815260200191505060405180910390f35b341561054257600080fd5b61054a611390565b6040518082815260200191505060405180910390f35b341561056b57600080fd5b610597600480803573ffffffffffffffffffffffffffffffffffffffff16906020019091905050611396565b005b34156105a457600080fd5b6105ac611745565b6040518082815260200191505060405180910390f35b34156105cd57600080fd5b6105d5611752565b6040518082815260200191505060405180910390f35b34156105f657600080fd5b6105fe611758565b6040518082815260200191505060405180910390f35b341561061f57600080fd5b61062761175e565b6040518082815260200191505060405180910390f35b341561064857600080fd5b610650611764565b604051808273ffffffffffffffffffffffffffffffffffffffff1673ffffffffffffffffffffffffffffffffffffffff16815260200191505060405180910390f35b341561069d57600080fd5b6106c9600480803573ffffffffffffffffffffffffffffffffffffffff1690602001909190505061178a565b005b60055481565b6000809054906101000a900473ffffffffffffffffffffffffffffffffffffffff1673ffffffffffffffffffffffffffffffffffffffff163373ffffffffffffffffffffffffffffffffffffffff1614151561072c57600080fd5b600454600a541015151561073f57600080fd5b80600a5481600b54011115151561075557600080fd5b81600b60008282540192505081905550600160009054906101000a900473ffffffffffffffffffffffffffffffffffffffff1673ffffffffffffffffffffffffffffffffffffffff166108fc839081150290604051600060405180830381858888f1935050505015156107c757600080fd5b7f7084f5476618d8e60b11ef0d7d3f06914655adb8793e28ff7f018d4c76d505d5600160009054906101000a900473ffffffffffffffffffffffffffffffffffffffff1683604051808373ffffffffffffffffffffffffffffffffffffffff1673ffffffffffffffffffffffffffffffffffffffff1681526020018281526020019250505060405180910390a15050565b60045481565b6000809054906101000a900473ffffffffffffffffffffffffffffffffffffffff1673ffffffffffffffffffffffffffffffffffffffff163373ffffffffffffffffffffffffffffffffffffffff161415156108b957600080fd5b624f1a0060025401421115156108ce57600080fd5b600160009054906101000a900473ffffffffffffffffffffffffffffffffffffffff1673ffffffffffffffffffffffffffffffffffffffff166108fc3073ffffffffffffffffffffffffffffffffffffffff16319081150290604051600060405180830381858888f19350505050151561094757600080fd5b565b60095481565b600254421015151561096057600080fd5b600454600854600a540110151561097657600080fd5b336003600481111561098457fe5b600660008373ffffffffffffffffffffffffffffffffffffffff1673ffffffffffffffffffffffffffffffffffffffff16815260200190815260200160002060020160009054906101000a900460ff1660048111156109df57fe5b1415156109eb57600080fd5b6004600660003373ffffffffffffffffffffffffffffffffffffffff1673ffffffffffffffffffffffffffffffffffffffff16815260200190815260200160002060020160006101000a81548160ff02191690836004811115610a4a57fe5b02179055503373ffffffffffffffffffffffffffffffffffffffff166108fc600660003373ffffffffffffffffffffffffffffffffffffffff1673ffffffffffffffffffffffffffffffffffffffff168152602001908152602001600020600001549081150290604051600060405180830381858888f193505050501515610ad157600080fd5b7fbb28353e4598c3b9199101a66e0989549b659a59a54d2c27fbb183f1932c8e6d33600660003373ffffffffffffffffffffffffffffffffffffffff1673ffffffffffffffffffffffffffffffffffffffff16815260200190815260200160002060000154604051808373ffffffffffffffffffffffffffffffffffffffff1673ffffffffffffffffffffffffffffffffffffffff1681526020018281526020019250505060405180910390a150565b6002544211151515610b9257600080fd5b6003543410151515610ba357600080fd5b60055434600a540111151515610bb857600080fd5b60006004811115610bc557fe5b600660003373ffffffffffffffffffffffffffffffffffffffff1673ffffffffffffffffffffffffffffffffffffffff16815260200190815260200160002060020160009054906101000a900460ff166004811115610c2057fe5b141515610c2c57600080fd5b60606040519081016040528034815260200182815260200160016004811115610c5157fe5b815250600660003373ffffffffffffffffffffffffffffffffffffffff1673ffffffffffffffffffffffffffffffffffffffff168152602001908152602001600020600082015181600001556020820151816001019080519060200190610cb9929190611829565b5060408201518160020160006101000a81548160ff02191690836004811115610cde57fe5b021790555090505060078054806001018281610cfa91906118a9565b9160005260206000209060020201600060408051908101604052803373ffffffffffffffffffffffffffffffffffffffff16815260200185815250909190915060008201518160000160006101000a81548173ffffffffffffffffffffffffffffffffffffffff021916908373ffffffffffffffffffffffffffffffffffffffff1602179055506020820151816001019080519060200190610d9d929190611829565b50505050346008600082825401925050819055507f7fcae430b6922754ad71fe39a9730965c7caaa6ed795094f0fc4b925f78e4d46333483604051808473ffffffffffffffffffffffffffffffffffffffff1673ffffffffffffffffffffffffffffffffffffffff16815260200183815260200180602001828103825283818151815260200191508051906020019080838360005b83811015610e4d578082015181840152602081019050610e32565b50505050905090810190601f168015610e7a5780820380516001836020036101000a031916815260200191505b5094505050505060405180910390a150565b600781815481101515610e9b57fe5b90600052602060002090600202016000915090508060000160009054906101000a900473ffffffffffffffffffffffffffffffffffffffff169080600101905082565b60085481565b600660205280600052604060002060009150905080600001549080600101908060020160009054906101000a900460ff16905083565b6000809054906101000a900473ffffffffffffffffffffffffffffffffffffffff1681565b6000809054906101000a900473ffffffffffffffffffffffffffffffffffffffff1673ffffffffffffffffffffffffffffffffffffffff163373ffffffffffffffffffffffffffffffffffffffff16141515610f9a57600080fd5b806000600660008373ffffffffffffffffffffffffffffffffffffffff1673ffffffffffffffffffffffffffffffffffffffff16815260200190815260200160002060000154111515610fec57600080fd5b60016004811115610ff957fe5b600660008373ffffffffffffffffffffffffffffffffffffffff1673ffffffffffffffffffffffffffffffffffffffff16815260200190815260200160002060020160009054906101000a900460ff16600481111561105457fe5b14151561106057600080fd5b6003600660008473ffffffffffffffffffffffffffffffffffffffff1673ffffffffffffffffffffffffffffffffffffffff16815260200190815260200160002060020160006101000a81548160ff021916908360048111156110bf57fe5b0217905550600660008373ffffffffffffffffffffffffffffffffffffffff1673ffffffffffffffffffffffffffffffffffffffff16815260200190815260200160002060000154600860008282540392505081905550600660008373ffffffffffffffffffffffffffffffffffffffff1673ffffffffffffffffffffffffffffffffffffffff16815260200190815260200160002060000154600a600082825401925050819055507f0328247363b9cdb965452c1a970b0e834765959fb322d6301063528eee398cc382600660008573ffffffffffffffffffffffffffffffffffffffff1673ffffffffffffffffffffffffffffffffffffffff16815260200190815260200160002060000154600660008673ffffffffffffffffffffffffffffffffffffffff1673ffffffffffffffffffffffffffffffffffffffff168152602001908152602001600020600101604051808473ffffffffffffffffffffffffffffffffffffffff1673ffffffffffffffffffffffffffffffffffffffff168152602001838152602001806020018281038252838181546001816001161561010002031660029004815260200191508054600181600116156101000203166002900480156112d05780601f106112a5576101008083540402835291602001916112d0565b820191906000526020600020905b8154815290600101906020018083116112b357829003601f168201915b505094505050505060405180910390a15050565b6000809054906101000a900473ffffffffffffffffffffffffffffffffffffffff1673ffffffffffffffffffffffffffffffffffffffff163373ffffffffffffffffffffffffffffffffffffffff1614151561133f57600080fd5b806000806101000a81548173ffffffffffffffffffffffffffffffffffffffff021916908373ffffffffffffffffffffffffffffffffffffffff16021790555050565b6000600a5460055403905090565b60035481565b60008060009054906101000a900473ffffffffffffffffffffffffffffffffffffffff1673ffffffffffffffffffffffffffffffffffffffff163373ffffffffffffffffffffffffffffffffffffffff161415156113f357600080fd5b816000600660008373ffffffffffffffffffffffffffffffffffffffff1673ffffffffffffffffffffffffffffffffffffffff1681526020019081526020016000206000015411151561144557600080fd5b6001600481111561145257fe5b600660008373ffffffffffffffffffffffffffffffffffffffff1673ffffffffffffffffffffffffffffffffffffffff16815260200190815260200160002060020160009054906101000a900460ff1660048111156114ad57fe5b1415156114b957600080fd5b6002600660008573ffffffffffffffffffffffffffffffffffffffff1673ffffffffffffffffffffffffffffffffffffffff16815260200190815260200160002060020160006101000a81548160ff0219169083600481111561151857fe5b0217905550600660008473ffffffffffffffffffffffffffffffffffffffff1673ffffffffffffffffffffffffffffffffffffffff1681526020019081526020016000206000015491506000600660008573ffffffffffffffffffffffffffffffffffffffff1673ffffffffffffffffffffffffffffffffffffffff168152602001908152602001600020600001819055508273ffffffffffffffffffffffffffffffffffffffff166108fc839081150290604051600060405180830381858888f1935050505015156115ea57600080fd5b81600860008282540392505081905550816009600082825401925050819055507f79103c2ed2e3f8617ea397a045f0421865834bbeaa2488ce4b4ea2fcdd3cacf88383600660008773ffffffffffffffffffffffffffffffffffffffff1673ffffffffffffffffffffffffffffffffffffffff168152602001908152602001600020600101604051808473ffffffffffffffffffffffffffffffffffffffff1673ffffffffffffffffffffffffffffffffffffffff168152602001838152602001806020018281038252838181546001816001161561010002031660029004815260200191508054600181600116156101000203166002900480156117305780601f1061170557610100808354040283529160200191611730565b820191906000526020600020905b81548152906001019060200180831161171357829003601f168201915b505094505050505060405180910390a1505050565b6000600780549050905090565b60025481565b600a5481565b600b5481565b600160009054906101000a900473ffffffffffffffffffffffffffffffffffffffff1681565b6000809054906101000a900473ffffffffffffffffffffffffffffffffffffffff1673ffffffffffffffffffffffffffffffffffffffff163373ffffffffffffffffffffffffffffffffffffffff161415156117e557600080fd5b80600160006101000a81548173ffffffffffffffffffffffffffffffffffffffff021916908373ffffffffffffffffffffffffffffffffffffffff16021790555050565b828054600181600116156101000203166002900490600052602060002090601f016020900481019282601f1061186a57805160ff1916838001178555611898565b82800160010185558215611898579182015b8281111561189757825182559160200191906001019061187c565b5b5090506118a591906118db565b5090565b8154818355818115116118d6576002028160020283600052602060002091820191016118d59190611900565b5b505050565b6118fd91905b808211156118f95760008160009055506001016118e1565b5090565b90565b61195391905b8082111561194f57600080820160006101000a81549073ffffffffffffffffffffffffffffffffffffffff02191690556001820160006119469190611956565b50600201611906565b5090565b90565b50805460018160011615610100020316600290046000825580601f1061197c575061199b565b601f01602090049060005260206000209081019061199a91906118db565b5b505600a165627a7a7230582094f44e8acdc4622751ec99134a727cbcb74d6de3b4cb5dfe5833150c083eda0d0029",
  "source": "pragma solidity ^0.4.18;\r\n\r\n\r\ncontract BlockFoodPreSale {\r\n\r\n    enum ApplicationState {Unset, Pending, Rejected, Accepted, Refunded}\r\n\r\n    struct Application {\r\n        uint contribution;\r\n        string id;\r\n        ApplicationState state;\r\n    }\r\n\r\n    struct Applicant {\r\n        address applicant;\r\n        string id;\r\n    }\r\n\r\n    /*\r\n        Set by constructor\r\n    */\r\n    address public owner;\r\n    address public target;\r\n    uint public endDate;\r\n    uint public minContribution;\r\n    uint public minCap;\r\n    uint public maxCap;\r\n\r\n    /*\r\n        Set by functions\r\n    */\r\n    mapping(address => Application) public applications;\r\n    Applicant[] public applicants;\r\n    uint public contributionPending;\r\n    uint public contributionRejected;\r\n    uint public contributionAccepted;\r\n    uint public withdrawn;\r\n\r\n    /*\r\n        Events\r\n    */\r\n    event PendingApplication(address applicant, uint contribution, string id);\r\n    event RejectedApplication(address applicant, uint contribution, string id);\r\n    event AcceptedApplication(address applicant, uint contribution, string id);\r\n    event Withdrawn(address target, uint amount);\r\n    event Refund(address target, uint amount);\r\n\r\n    /*\r\n        Modifiers\r\n    */\r\n    modifier onlyBeforeEnd() {\r\n        require(now <= endDate);\r\n        _;\r\n    }\r\n\r\n    modifier onlyMoreThanMinContribution() {\r\n        require(msg.value >= minContribution);\r\n        _;\r\n    }\r\n\r\n    modifier onlyMaxCapNotReached() {\r\n        require((contributionAccepted + msg.value) <= maxCap);\r\n        _;\r\n    }\r\n\r\n    modifier onlyOwner () {\r\n        require(msg.sender == owner);\r\n        _;\r\n    }\r\n\r\n    modifier onlyNewApplicant () {\r\n        require(applications[msg.sender].state == ApplicationState.Unset);\r\n        _;\r\n    }\r\n\r\n    modifier onlyPendingApplication(address applicant) {\r\n        require(applications[applicant].contribution > 0);\r\n        require(applications[applicant].state == ApplicationState.Pending);\r\n        _;\r\n    }\r\n\r\n    modifier onlyMinCapReached() {\r\n        require(contributionAccepted >= minCap);\r\n        _;\r\n    }\r\n\r\n    modifier onlyNotWithdrawn(uint amount) {\r\n        require(withdrawn + amount <= contributionAccepted);\r\n        _;\r\n    }\r\n\r\n    modifier onlyFailedPreSale() {\r\n        require(now >= endDate);\r\n        require(contributionAccepted + contributionPending < minCap);\r\n        _;\r\n    }\r\n\r\n    modifier onlyAcceptedApplication(address applicant) {\r\n        require(applications[applicant].state == ApplicationState.Accepted);\r\n        _;\r\n    }\r\n\r\n    modifier onlyAfterTwoMonthsAfterTheEnd() {\r\n        require(now > (endDate + 60 days));\r\n        _;\r\n    }\r\n\r\n    /*\r\n        Constructor\r\n    */\r\n    function BlockFoodPreSale(\r\n        address target_,\r\n        uint endDate_,\r\n        uint minContribution_,\r\n        uint minCap_,\r\n        uint maxCap_\r\n    )\r\n    public\r\n    {\r\n        owner = msg.sender;\r\n\r\n        target = target_;\r\n        endDate = endDate_;\r\n        minContribution = minContribution_;\r\n        minCap = minCap_;\r\n        maxCap = maxCap_;\r\n    }\r\n\r\n    /*\r\n       Public functions\r\n    */\r\n\r\n    function apply(string id)\r\n    payable\r\n    public\r\n    onlyBeforeEnd\r\n    onlyMoreThanMinContribution\r\n    onlyMaxCapNotReached\r\n    onlyNewApplicant\r\n    {\r\n        applications[msg.sender] = Application(msg.value, id, ApplicationState.Pending);\r\n        applicants.push(Applicant(msg.sender, id));\r\n        contributionPending += msg.value;\r\n        PendingApplication(msg.sender, msg.value, id);\r\n    }\r\n\r\n    function refund()\r\n    public\r\n    onlyFailedPreSale\r\n    onlyAcceptedApplication(msg.sender)\r\n    {\r\n        applications[msg.sender].state = ApplicationState.Refunded;\r\n        msg.sender.transfer(applications[msg.sender].contribution);\r\n        Refund(msg.sender, applications[msg.sender].contribution);\r\n    }\r\n\r\n    /*\r\n        Restricted functions (owner only)\r\n    */\r\n\r\n    function reject(address applicant)\r\n    public\r\n    onlyOwner\r\n    onlyPendingApplication(applicant)\r\n    {\r\n        applications[applicant].state = ApplicationState.Rejected;\r\n\r\n        // protection against function reentry on an overriden transfer() function\r\n        uint contribution = applications[applicant].contribution;\r\n        applications[applicant].contribution = 0;\r\n        applicant.transfer(contribution);\r\n\r\n        contributionPending -= contribution;\r\n        contributionRejected += contribution;\r\n\r\n        RejectedApplication(applicant, contribution, applications[applicant].id);\r\n    }\r\n\r\n    function accept(address applicant)\r\n    public\r\n    onlyOwner\r\n    onlyPendingApplication(applicant)\r\n    {\r\n        applications[applicant].state = ApplicationState.Accepted;\r\n\r\n        contributionPending -= applications[applicant].contribution;\r\n        contributionAccepted += applications[applicant].contribution;\r\n\r\n        AcceptedApplication(applicant, applications[applicant].contribution, applications[applicant].id);\r\n    }\r\n\r\n    function withdraw(uint amount)\r\n    public\r\n    onlyOwner\r\n    onlyMinCapReached\r\n    onlyNotWithdrawn(amount)\r\n    {\r\n        withdrawn += amount;\r\n        target.transfer(amount);\r\n        Withdrawn(target, amount);\r\n    }\r\n\r\n    /*\r\n        Views\r\n    */\r\n\r\n    function getApplicantsLength()\r\n    view\r\n    public\r\n    returns (uint)\r\n    {\r\n        return applicants.length;\r\n    }\r\n\r\n    function getMaximumContributionPossible()\r\n    view\r\n    public\r\n    returns (uint)\r\n    {\r\n        return maxCap - contributionAccepted;\r\n    }\r\n\r\n    /*\r\n        Maintenance functions\r\n    */\r\n\r\n    function failsafe()\r\n    public\r\n    onlyOwner\r\n    onlyAfterTwoMonthsAfterTheEnd\r\n    {\r\n        target.transfer(this.balance);\r\n    }\r\n\r\n    function changeOwner(address newOwner)\r\n    public\r\n    onlyOwner\r\n    {\r\n        owner = newOwner;\r\n    }\r\n\r\n    function changeTarget(address newTarget)\r\n    public\r\n    onlyOwner\r\n    {\r\n        target = newTarget;\r\n    }\r\n\r\n}\r\n",
  "sourcePath": "C:\\dev\\perso\\smart-contract-pre-sale\\contracts\\BlockFoodPreSale.sol",
  "compiler": {
    "name": "solc",
    "version": "0.4.18+commit.9cf6e910.Emscripten.clang"
  },
  "schemaVersion": "1.0.1",
  "updatedAt": "2018-01-05T09:48:44.945Z"
}